:0400000092EF00F08B
:100008000182FACF4CF0FBCF4DF0D9CF4EF0DACFCA
:100018004FF0F3CF50F0F4CF51F0F6CF52F0F7CFC6
:1000280053F0F8CF54F0F5CF55F0F2AA1EEF00F0D8
:1000380020EF00F02BEF00F0F2A425EF00F027EFFF
:1000480000F02BEF00F054EC0BF07CEF00F0F2AC7A
:1000580030EF00F032EF00F07CEF00F076AC37EFD5
:1000680000F039EF00F044EF00F077AC3EEF00F01D
:1000780040EF00F044EF00F0F2EC0BF07CEF00F002
:100088009DA849EF00F04BEF00F061EF00F09EA84B
:1000980050EF00F052EF00F061EF00F002D85FEF90
:1000A80000F005000001FA6E8051FD6E8151FE6E70
:1000B800FF6AFA5012007CEF00F09DAA66EF00F08C
:1000C80068EF00F07CEF00F09EAA6DEF00F06FEF94
:1000D80000F07CEF00F002D87CEF00F00500000192
:1000E800FA6E7E51FD6E7F51FE6EFF6AFA50120065
:1000F80055C0F5FF54C0F8FF53C0F7FF52C0F6FFD4
:1001080051C0F4FF50C0F3FF4FC0DAFF4EC0D9FF13
:100118004DC0FBFF4CC0FAFF0192110038EF0BF005
:101000000000000100643D01000100143C020108E1
:10101000640070003F6E3FC040F040B212EF08F035
:1010200015EF08F0010E16EF08F0000E3E6E40B00E
:101030001CEF08F01FEF08F0010E20EF08F0000E83
:101040003E1AD8A426EF08F029EF08F0408C2AEFCA
:1010500008F0409C40B42FEF08F032EF08F0010E8A
:1010600033EF08F0000E3E6E40BC39EF08F03CEF65
:1010700008F0010E3DEF08F0000E3E1AD8A443EF31
:1010800008F046EF08F0408C47EF08F0409C40B86D
:101090004CEF08F04FEF08F0010E50EF08F0000E93
:1010A0003E6E40BC56EF08F059EF08F0010E5AEFC3
:1010B00008F0000E3E1AD8A460EF08F063EF08F0C5
:1010C000408C64EF08F0409C40B669EF08F06CEF8C
:1010D00008F0010E6DEF08F0000E3E6E40B273EFA7
:1010E00008F076EF08F0010E77EF08F0000E3E1AD8
:1010F000D8A47DEF08F080EF08F0408E81EF08F073
:10110000409E40B886EF08F089EF08F0010E8AEFA4
:1011100008F0000E3E6E40BE90EF08F093EF08F02E
:10112000010E94EF08F0000E3E1AD8A49AEF08F0D2
:101130009DEF08F0408E9EEF08F0409E40BAA3EF6E
:1011400008F0A6EF08F0010EA7EF08F0000E3E6EC3
:1011500040BEADEF08F0B0EF08F0010EB1EF08F0BF
:10116000000E3E1AD8A4B7EF08F0BAEF08F0408E90
:10117000BBEF08F0409E40BEC0EF08F0C3EF08F0A0
:10118000010EC4EF08F0000EFF0A3E6E3E323E3202
:1011900040503E187F0B3E18406E40501200476E84
:1011A00023C049F0486AE8EF08F049C0F6FF100E86
:1011B000F76E0800F5504718D8A4E1EF08F0E3EF08
:1011C00008F0E5EF08F0F1EF08F0060E4926482A8E
:1011D0002250485CD8A0EFEF08F0F1EF08F0D5EF0F
:1011E00008F0310E3E6E406A000E3F6E426A0B0EF2
:1011F000416E6DEC0BF049C0F6FF100EF76E080063
:10120000F5500AEC08F0316E49C046F0010E462652
:1012100046C0F6FF100EF76E0800F5500009D8A47E
:1012200014EF09F016EF09F053EF09F049C046F04A
:10123000020E462646C0F6FF100EF76E0800F55067
:101240000009D8B426EF09F028EF09F047EF09F0BC
:1012500049C046F0020E462646C0F6FF100EF76E55
:101260000800F5CF3BF0320E3E6E45C03FF049C05E
:1012700046F0020E462646C0F6FF100EF76E080036
:10128000F550406E416AFBEC0AF04BEF09F0010E9D
:101290003B6EAA0E326E320E3E6E3B50A5EC0AF04B
:1012A0003A6E70EF09F049C046F0020E462646C07D
:1012B000F6FF100EF76E0800F5CF26F049C0F6FFD6
:1012C000100EF76E0800F5CF25F049C046F0030E6A
:1012D000462646C0F6FF100EF76E0800F5CF30F038
:1012E000010E246E12001D6A1A50060D2350F324BD
:1012F0004B6E4BC04AF0040E4A264AC0F6FF100E51
:10130000F76E0800F5500009D8B489EF09F08BEFAB
:1013100009F09EEF09F04BC04AF0050E4A264AC07C
:10132000F6FF100EF76E0800F5CF45F04BC0F6FF44
:10133000100EF76E0800F550CFEC08F01A2A225074
:101340001A5CD8A0A6EF09F0A8EF09F0A9EF09F000
:101350001A6A1A50060D2350F3244B6E4BC04AF004
:10136000040E4A264AC0F6FF100EF76E0800F5502C
:101370000009D8B4BEEF09F0C0EF09F09EEF09F004
:101380004BC04AF0040E4A264AC0F6FF100EF76E14
:101390000800F5CF21F012001550020FD96EDA6A5D
:1013A000DF6AABA4D6EF09F0D8EF09F0EAEF09F055
:1013B0001550020FD96EDA6ADF8202D8EAEF09F01F
:1013C00005000001FA6E7C51FD6E7D51FE6EFF6AD4
:1013D000FA501200ABA2EFEF09F0F1EF09F003EFC2
:1013E0000AF01550020FD96EDA6ADF8402D803EFD3
:1013F0000AF005000001FA6E7A51FD6E7B51FE6E17
:10140000FF6AFA5012001550020FD96EDA6ADF50E7
:10141000D8B40DEF0AF00FEF0AF01EEF0AF002D871
:101420001CEF0AF005000001FA6E7851FD6E79514B
:10143000FE6EFF6AFA50120020EF0AF0ADEC0BF0DE
:101440001200800E6F6E6E50E00B800AD8A42BEF56
:101450000AF02DEF0AF023EF0AF0726A200E706E88
:101460000E01FA6BFB6BF86BF96BFE6BFF6BFC6BA1
:10147000FD6BE26BE36BE06BE16BE66BE76BE46BE0
:10148000E56BEA6BEB6BE86BE96BEE6BEF6BEC6BB0
:10149000ED6BF26BF36BF06BF16BF66BF76BF46B60
:1014A000F56B436B980E446F010E456FC20E000141
:1014B000826F180E836F45EC0CF0779C768C6F6A08
:1014C0006ECF84F0E00E00018417D8A46AEF0AF012
:1014D0006CEF0AF060EF0AF012009D9A980E00017E
:1014E000826F130E836F31EC0CF09D98360E000165
:1014F000826F160E836F2CEC0CF0080EA76E900E08
:10150000AB6E240EAC6E670EAF6E7D6AC00E00012E
:10151000826F180E836F3BEC0CF0AE0E0001826FF1
:10152000180E836F36EC0CF0B40E0001826F180EAB
:10153000836F40EC0CF0126A186A176A080E166E78
:10154000156A146A136A9D8A1200406E436A000E7F
:10155000426E416AC5EF0AF03E50D96EDA6ADF503A
:101560003F6E3F504224426E000E4320436E3E2A9F
:101570004304D8A0BEEF0AF0C0EF0AF0C4EF0AF0AF
:10158000FF0E425E000E435A412A4050415CD8A0F3
:10159000CCEF0AF0CEEF0AF0ACEF0AF0421E431E89
:1015A000425012002004D8A4D8EF0AF0DAEF0AF073
:1015B000E6EF0AF01E2A58501E5CD8A0E2EF0AF0AF
:1015C000E4EF0AF0E6EF0AF054EC0CF01F04D8A4A4
:1015D000ECEF0AF0EEEF0AF0FAEF0AF01D2A2150C4
:1015E0001D5CD8A0F6EF0AF0F8EF0AF0FAEF0AF067
:1015F00073EC09F012003FC044F03EC043F00DEF21
:101600000BF04450D96EDA6ADF50426E442A4350E0
:10161000D96EDA6A42C0DFFF432A4006D8A04106ED
:10162000402806E14128D8A418EF0BF01AEF0BF080
:1016300001EF0BF01200080E166021EF0BF023EF04
:101640000BF036EF0BF01750680FD96EDA6ADF50E7
:10165000AD6E172A070E176430EF0BF032EF0BF068
:1016600033EF0BF0176A162A37EF0BF09D98120034
:10167000C40EF66E180EF76E000EF86E0900F5CF68
:1016800058F000EE60F0180EEE6AE806FDE100EE9C
:1016900002F03C0EEE6AE806FDE101900192000EB8
:1016A000F86E00011BEF0CF0F29419C0D6FF5650F3
:1016B0005710D8B45EEF0BF060EF0BF06CEF0BF04F
:1016C00002D86CEF0BF00500FA6E5650FD6E5750C5
:1016D000FE6EFF6AFA50120012003EC043F077EF30
:1016E0000BF04350D96EDA6A3FC0DFFF432A410650
:1016F000D8A04206412806E14228D8A482EF0BF088
:1017000084EF0BF071EF0BF012005DEC0CF0D0ECFD
:101710000BF021EC0CF04AEC0CF013EC0CF09AEC12
:101720000BF0BFEC0BF06DEC0AF021EC0AF000ECD2
:101730000CF01200AA6ACF6ACE6A9E90CE50CFCF2C
:1017400082F00001836B82C083F0826B82110C6E89
:1017500083510D6E010ECD6E12001550600FD96EC3
:10176000DA6AAECFDFFF152A070E1564BAEF0BF069
:10177000BCEF0BF0BDEF0BF0156A132A1200D76A0D
:10178000830ED66E830E196EF294F28ABE0E00019D
:10179000826F180E836F27EC0CF0D30ED56E1200FB
:1017A000896A8A6A8B6AEF0E926EFB0E936EBF0E89
:1017B000946E1F0E0F015D6F070E5C6F5B6BF18EF9
:1017C00012000001876F84C023F087C022F085C01B
:1017D00010F086C011F04EEC0CF00BEC0CF051EC5C
:1017E0000CF0120002D8FEEF0BF00500FA6E0A5062
:1017F000FD6E0B50FE6EFF6AFA501200779C1200CD
:10180000010E0001846F000E856F000E866F030EBF
:10181000E1EC0BF01200A40E0001826F150E836F35
:1018200027EC0CF01200010EC26EC16A020EC06EEF
:10183000C46AC36A120085EC0BF01DEF0CF092EF46
:1018400000F0600ED36ED26A9B6A9A6A120082C060
:1018500056F083C057F0120082C080F083C081F040
:10186000120082C07EF083C07FF0120082C07AF046
:1018700083C07BF0120082C07CF083C07DF0120038
:1018800082C078F083C079F0120082C00AF083C071
:101890000BF01200BB6ABD6ABC6A12001E6A206AA5
:1018A0001200010E1F6E12001E6A206A1200AB9811
:1018B000AB881200ADEC0BF01200D09E12001200AB
:0518C000120012000AF5
:020000040030CA
:0E00000015187F50FF8991FF0FC00FE00F40D1
:00000001FF
